:100000000C9472000C9493000C9493000C94930045
:100010000C9493000C9493000C9493000C94930014
:100020000C9493000C9493000C9493000C94930004
:100030000C9493000C9493000C9493000C949300F4
:100040000C9493000C9493000C9493000C949300E4
:100050000C9493000C9493000C9493000C949300D4
:100060000C9493000C9444010C94F9000C949300AC
:100070000C9493000C9493000C9493000C949300B4
:100080000C9493000C9493000C9493000C949300A4
:100090000C9493000C9493000C9493000C94930094
:1000A0000C9493000C9493000C9493000C94930084
:1000B0000C9493000C9493000C9493000C94930074
:1000C0000C9493000C9493000C9493000C94930064
:1000D0000C9493000C9493000C9493000C94930054
:1000E0000C94930011241FBECFEFD1E2DEBFCDBF31
:1000F00000E00CBF12E0A0E0B2E0E0E5FBE000E0D1
:100100000BBF02C007900D92A633B107D9F712E0DA
:10011000A6E3B2E001C01D92AC3BB107E1F70E943B
:1001200095000C94A7050C9400000F93CF93DF93D8
:10013000CDB7DEB767970FB6F894DEBF0FBECDBF61
:10014000789402E021E048E069E370E380E00E94F7
:1001500075030E941A020E94660362E082E00E9418
:10016000B20281E20E94FB0280E092E00E94D30191
:1001700062E086E10E94B20280E20E94FB02CE01B0
:1001800004960E944302CE0104960E9470049A8352
:10019000898389819A819E012C5F3F4F40E1BC0198
:1001A000C9010E94C70463E085E00E94B20282E2B6
:1001B0000E94FB0283E192E00E94D301CE010496EB
:1001C0000E94D30189819A819E012C5F3F4F42E0BA
:1001D000BC01C9010E94C70464E085E00E94B2022C
:1001E00088E192E00E94D301CE0104960E94D301DF
:1001F000B0CF1F920F920FB60F9211242F933F93FF
:100200005F936F937F938F939F93AF93BF93EF937E
:10021000FF93CF93DF93CDB7DEB7909178028091B3
:100220007902981741F4A1ECB0E0E1ECF0E08081B4
:100230008F7D8C9317C080917802882F90E0019673
:1002400020E430E0B9010E94570580937802A6ECC3
:10025000B0E080917802882F90E0FC01E85CFD4FCF
:1002600080818C93DF91CF91FF91EF91BF91AF91FE
:100270009F918F917F916F915F913F912F910F90FF
:100280000FBE0F901F9018951F920F920FB60F92EE
:1002900011242F933F935F936F937F938F939F933B
:1002A000AF93BF93EF93FF93CF93DF93CDB7DEB7B9
:1002B0008091BA02E82FF0E08091BB02882F90E095
:1002C000019620E430E0B9010E945705E817F907CC
:1002D000B9F08091BB02882F90E0019620E430E0D5
:1002E000B9010E9457058093BB028091BB02882F01
:1002F00090E0E6ECF0E02081FC01E658FD4F208321
:10030000DF91CF91FF91EF91BF91AF919F918F912D
:100310007F916F915F913F912F910F900FBE0F9042
:100320001F901895CF93DF93CDB7DEB721970FB607
:10033000F894DEBF0FBECDBF898380917802E82F8D
:10034000F0E080917902882F90E0019620E430E07F
:10035000B9010E945705E817F90779F380917902EE
:10036000882F90E0019620E430E0B9010E94570503
:100370008093790280917902882F90E0FC01E85CFB
:10038000FD4F89818083A1ECB0E0E1ECF0E0808159
:1003900080628C9321960FB6F894DEBF0FBECDBF5E
:1003A000DF91CF910895CF93DF93CDB7DEB722973A
:1003B0000FB6F894DEBF0FBECDBF9A8389830BC002
:1003C000E981FA81208189819A8101969A838983C2
:1003D000822F0E949201E981FA818081882381F72E
:1003E00022960FB6F894DEBF0FBECDBFDF91CF913E
:1003F0000895CF93DF93CDB7DEB722970FB6F89469
:10040000DEBF0FBECDBF9091BA028091BB021A82AF
:100410001982981721F081E090E09A83898389817D
:100420009A8122960FB6F894DEBF0FBECDBFDF9142
:10043000CF910895CF93DF93CDB7DEB70E94F90136
:100440008823E1F38091BA02882F90E0019620E49E
:1004500030E0B9010E9457058093BA028091BA0238
:10046000882F90E0FC01E658FD4F80818093360292
:10047000809136020E94920180913602882F90E08E
:10048000DF91CF910895CF93DF93CDB7DEB7259756
:100490000FB6F894DEBF0FBECDBF9D838C8384E181
:1004A0008B838C819D819A8389830E941A02809319
:1004B000370244C080913702883029F18B81882F20
:1004C00090E09C0189819A81820F931F9C012150A9
:1004D00030408C819D818217930758F480913702B8
:1004E000EC81FD8180838C819D8101969D838C832D
:1004F00021C088E00E94920180E20E94920188E07F
:100500000E94920117C02C813D8189819A81281710
:10051000390721F480E20E9492010CC080E20E941F
:100520009201809137020E9492018C819D810197F6
:100530009D838C830E941A02809337028091370238
:100540008D3009F0B7CF8AE00E949201EC81FD81E5
:10055000108225960FB6F894DEBF0FBECDBFDF9197
:10056000CF910895CF93DF93CDB7DEB722970FB623
:10057000F894DEBF0FBECDBF89836A838A819AE07B
:10058000692F0E943705892F805D809320028A8120
:100590009AE0692F0E9437058A838A819AE0692F41
:1005A0000E943705892F805D80931F0289819AE020
:1005B000692F0E943705892F805D809323028981EE
:1005C0009AE0692F0E943705898389819AE0692F13
:1005D0000E943705892F805D809322028DE192E091
:1005E0000E94D30122960FB6F894DEBF0FBECDBF96
:1005F000DF91CF910895CF93DF93CDB7DEB72397E7
:100600000FB6F894DEBF0FBECDBF89838981282F36
:1006100030E03B832A838A819B8181329105B1F14D
:100620002A813B812232310584F48A819B818F317A
:10063000910521F12A813B81203231051CF58A8107
:100640009B818E319105B1F034C02A813B812332E8
:10065000310521F18A819B8183329105DCF02A8169
:100660003B8124323105F1F08A819B8185329105ED
:10067000E9F01FC080E3809329021BC081E38093CF
:10068000290217C082E38093290213C083E3809379
:1006900029020FC084E3809329020BC085E3809375
:1006A000290207C086E38093290203C087E3809371
:1006B000290286E292E00E94D30123960FB6F894B5
:1006C000DEBF0FBECDBFDF91CF910895CF93DF93F3
:1006D000CDB7DEB78CE292E00E94D30181E392E0D5
:1006E0000E94D301DF91CF9108950F93CF93DF93B1
:1006F000CDB7DEB72C970FB6F894DEBF0FBECDBFD7
:100700008B837D836C834E832F83088780EC90E0FE
:100710009A8389838B81833051F480E391E09A83BB
:1007200089830BC089819A8108969A8389838B81FA
:1007300081508B838B818F3FA9F789819A81DC015E
:10074000119689819A81FC013196808188618C9310
:100750008C819D819C0140E050E080E492E4AFE018
:10076000B0E0BC01CD010E946A05DA01C901019720
:100770009D838C8389819A81FC01359610828981C1
:100780009A81FC0134968C81808389819A81DC0175
:10079000119689819A81FC01319680818B7F8C939F
:1007A00089819A81DC01129689819A81FC013296B5
:1007B0008081897F8C938E81282F30E03C872B8726
:1007C0008B859C8587309105B9F02B853C85283039
:1007D0003105F1F08B859C858630910509F023C0A9
:1007E00089819A81DC01129689819A81FC01329675
:1007F000808182608C9317C089819A81DC01129676
:1008000089819A81FC013296808184608C930BC02F
:1008100089819A81DC01129689819A81FC01329644
:10082000808186608C9389819A81DC01129689810E
:100830009A81FC01329680818F7C8C938F81282F46
:1008400030E03A87298789859A858130910531F092
:1008500029853A852230310569F017C089819A814E
:10086000DC01129689819A81FC0132968081806335
:100870008C930BC089819A81DC01129689819A81BF
:10088000FC013296808180628C938885823059F495
:1008900089819A81DC01129689819A81FC013296C4
:1008A000808188608C9389819A81DC01119689818D
:1008B0009A81FC0131968081806A8C931092BA02F1
:1008C0001092BB0210927802109279022C960FB609
:1008D000F894DEBF0FBECDBFDF91CF910F91089589
:1008E000CF93DF93CDB7DEB726970FB6F894DEBF70
:1008F0000FBECDBF9E838D831C821B821A821982FC
:1009000036C0ED81FE818081882F90E0C0979A8368
:10091000898389819A8199237CF189819A818A309E
:10092000910554F529813A818B819C81820F931F17
:100930009C838B838D819E8101969E838D83ED8127
:10094000FE818081803398F0ED81FE8180818A3341
:1009500070F48B819C819C01220F331FC901880F89
:10096000991F880F991F820F931F9C838B83ED81A2
:10097000FE818081882329F68B819C8126960FB683
:10098000F894DEBF0FBECDBFDF91CF910895CF9316
:10099000DF93CDB7DEB729970FB6F894DEBF0FBE51
:1009A000CDBF9D838C837F836E8348878C819D819F
:1009B0009B838A838885282F30E08E819F81B901AF
:1009C0000E944305805D898389818A3328F089816B
:1009D000982F995F998702C089818987EC81FD8171
:1009E000998590838C819D8101969D838C838885D8
:1009F000282F30E08E819F81B9010E944305CB01F1
:100A00009F838E838E819F810097A1F6EC81FD816B
:100A100010828C819D8101979D838C8318C0EA810F
:100A2000FB8180818983EC81FD818081EA81FB816A
:100A30008083EC81FD81898180838A819B810196FD
:100A40009B838A838C819D8101979D838C832A81DE
:100A50003B818C819D812817390708F329960FB6B1
:100A6000F894DEBF0FBECDBFDF91CF910895991BE3
:100A700079E004C0991F961708F0961B881F7A9595
:100A8000C9F780950895AA1BBB1B51E107C0AA1F97
:100A9000BB1FA617B70710F0A61BB70B881F991F1F
:100AA0005A95A9F780959095BC01CD01089597FBC3
:100AB000092E07260AD077FD04D0E5DF06D00020F6
:100AC0001AF4709561957F4F0895F6F7909581958A
:100AD0009F4F089597FB092E05260ED057FD04D091
:100AE00014D00AD0001C38F45095409530952195CB
:100AF0003F4F4F4F5F4F0895F6F790958095709553
:100B000061957F4F8F4F9F4F0895A1E21A2EAA1B28
:100B1000BB1BFD010DC0AA1FBB1FEE1FFF1FA217AD
:100B2000B307E407F50720F0A21BB30BE40BF50BAA
:100B3000661F771F881F991F1A9469F76095709533
:100B4000809590959B01AC01BD01CF010895FFCF29
:100B500047697665206D652061206E756D626572EE
:100B60003A20004865783A0042696E3A001B5B30D3
:100B7000303B303048001B5B33306D001B5B324A2A
:060B8000001B5B480000B1
:00000001FF
