:100000000C9472000C9493000C9493000C94930045
:100010000C9493000C9493000C9493000C94930014
:100020000C9493000C9493000C9493000C94930004
:100030000C9493000C9493000C9493000C949300F4
:100040000C9493000C9493000C9493000C949300E4
:100050000C9493000C9493000C9493000C949300D4
:100060000C9493000C9493000C9493000C949300C4
:100070000C9493000C9493000C9493000C949300B4
:100080000C9493000C9493000C9493000C949300A4
:100090000C9493000C9493000C9493000C94930094
:1000A0000C9493000C9493000C9493000C94930084
:1000B0000C9493000C9493000C9493000C94930074
:1000C0000C9493000C9493000C9493000C94930064
:1000D0000C9493000C9493000C9493000C94930054
:1000E0000C94930011241FBECFEFD1E2DEBFCDBF31
:1000F00000E00CBF12E0A0E0B2E0E6EFF0E100E0CB
:100100000BBF02C007900D92AA30B107D9F712E0D9
:10011000AAE0B2E001C01D92A631B107E1F70E944A
:1001200095000C947A080C940000CF93DF93CDB720
:10013000DEB760970FB6F894DEBF0FBECDBF81E08B
:1001400090E00E94EA010E944B010E940A02282FBF
:1001500030E0388B2F878F8598898130910531F079
:100160002F8538892230310539F00BC080910A0281
:100170008F5F80930A0205C080910A0281508093AC
:100180000A0280E090E0A0E8BFE38B879C87AD8700
:10019000BE8720E030E04AE753E46B857C858D859F
:1001A0009E850E94A904DC01CB018F839887A987D3
:1001B000BA8720E030E040E85FE36F817885898589
:1001C0009A850E94140688230CF005C081E090E017
:1001D0009E838D8340C020E03FEF4FE757E46F815F
:1001E000788589859A850E94A80518160CF029C083
:1001F00020E030E040E251E46B857C858D859E8572
:100200000E94A904DC01CB01BC01CD010E94DF02E8
:10021000DC01CB019E838D830FC089E190E09C833C
:100220008B838B819C810197F1F79C838B838D81DC
:100230009E8101979E838D838D819E81009769F7B2
:1002400014C06F81788589859A850E94DF02DC0160
:10025000CB019E838D838D819E819A838983898141
:100260009A810197F1F79A83898380910B0290918B
:100270000C02A0910D02B0910E020196A11DB11DBC
:1002800080930B0290930C02A0930D02B0930E0288
:100290000E945B015ACFCF93DF93CDB7DEB7E1E386
:1002A000F0E080E88083E0E3F0E080E48083000019
:1002B000DF91CF910895CF93DF93CDB7DEB7A1E360
:1002C000B0E0E1E3F0E08081807F8C93A0E3B0E0D8
:1002D000E0E3F0E08081807F8C93000080910A024F
:1002E000282F30E080910F02882F90E0A90102C0F2
:1002F000559547958A95E2F7CA01817090708823D9
:1003000009F45BC080910F02882321F080910F02D5
:10031000813079F4A0E3B0E0E0E3F0E08081836035
:100320008C9380910F02882311F4899A46C0889A91
:1003300044C080910F02823021F080910F028330FF
:1003400079F4A0E3B0E0E0E3F0E0808186608C9394
:1003500080910F02823011F48A9A2FC0899A2DC0A1
:1003600080910F02843021F080910F02853079F462
:10037000A0E3B0E0E0E3F0E0808185608C938091C1
:100380000F02843011F4889A18C08A9A16C080919E
:100390000F02863021F080910F02873071F4A0E3C4
:1003A000B0E0E0E3F0E080818C608C9380910F02FC
:1003B000863011F48B9A01C08A9A80910F028F5F68
:1003C00080930F0280910F02877080930F02DF915C
:1003D000CF910895CF93DF93CDB7DEB724970FB6B3
:1003E000F894DEBF0FBECDBF9C838B838B819C8135
:1003F00001979C838B838B819C812FEF8F3F92078A
:10040000A9F724960FB6F894DEBF0FBECDBFDF91DB
:10041000CF910895EF92FF920F931F93CF93DF93A5
:10042000CDB7DEB722970FB6F894DEBF0FBECDBFB3
:10043000EFE2F0E080818823C4F0809100028823FD
:1004400009F45DC01092000280910B0290910C02A1
:10045000A0910D02B0910E028093100290931102B0
:10046000A0931202B09313024AC080910B029091A4
:100470000C02A0910D02B0910E0220911002309159
:1004800011024091120250911302821B930BA40B94
:10049000B50B85369105A105B10588F18091000263
:1004A000882369F581E08093000220910B0230914E
:1004B0000C0240910D0250910E0280911002909119
:1004C0001102A0911202B091130279018A01E81A77
:1004D000F90A0A0B1B0BD801C701883E03E09007FD
:1004E00000E0A00700E0B00728F082E090E09A83E7
:1004F000898307C001E010E01A83098302C01A82D1
:10050000198289819A8122960FB6F894DEBF0FBEB8
:10051000CDBFDF91CF911F910F91FF90EF90089584
:10052000CF93DF93CDB7DEB721970FB6F894DEBF38
:100530000FBECDBF1982EFE2F0E080818823ACF0DE
:1005400080910102813039F482E390E00E94EA0157
:100550001092010228C08091140290911502019618
:1005600090931502809314021EC08091010288238B
:1005700091F482E390E00E94EA018091140290914C
:10058000150223E0873E920718F481E0898304C0B6
:1005900082E0898301C0198281E080930102109278
:1005A0001502109214028981882F90E021960FB6CF
:1005B000F894DEBF0FBECDBFDF91CF910895EF92CB
:1005C000FF920F931F937B018C0120E030E040E00D
:1005D0005FE40E94DE0588237CF020E030E040E00C
:1005E0005FE4C801B7010E944B040E944A066050B4
:1005F00070408040904804C0C801B7010E944A067C
:100600001F910F91FF90EF900895A0E0B0E0EBE014
:10061000F3E00C9445082C015B01FA01DC019C918C
:10062000923008F432C1EB018881823008F42CC189
:10063000943071F4843009F028C1F20191818981EC
:10064000981709F422C112E0412E12E0512E1DC16B
:10065000843009F419C18230A9F4923009F015C12F
:10066000CA01A20128E0DA010D90AD01EC01099266
:10067000CE012150C1F7E5018981E20199818923E9
:10068000818300C1923009F4FFC0E201CA80DB809F
:10069000EB018A819B81E2012C813D814E815F814A
:1006A000EB01EC80FD800E811F81B601681B790B88
:1006B000DB0177FF03C0709561957F4F6032710554
:1006C0000CF05DC01A161B065CF566247724430106
:1006D00081E090E0A0E0B0E0062E04C0880F991FF2
:1006E000AA1FBB1F0A94D2F70197A109B1098E2155
:1006F0009F21A023B1230097A105B10529F0B1E006
:100700006B2E712C812C912C04C016950795F794B3
:10071000E7946A95D2F7E628F728082919293BC0FB
:10072000AB2BC9F1C60ED71E66247724430181E0A6
:1007300090E0A0E0B0E0062E04C0880F991FAA1F29
:10074000BB1F0A94D2F70197A109B1098223932311
:10075000A423B5230097A105B10529F0A1E06A2ED5
:10076000712C812C912C04C056954795379527956F
:100770006A95D2F726293729482959290CC08C15A2
:100780009D0534F06C0120E030E040E050E003C013
:10079000EE24FF248701E2019981E5018981981700
:1007A00009F443C0992339F0E21AF30A040B150B3C
:1007B000A801970104C02E193F09400B510B57FDAA
:1007C00008C01182D382C282248335834683578333
:1007D0001DC081E08183D382C28288279927DC01F2
:1007E000821B930BA40BB50B84839583A683B783DD
:1007F0000DC0220F331F441F551F248335834683AA
:1008000057838281938101979383828324813581E9
:1008100046815781DA01C9010197A109B1098F5FAA
:100820009F4FAF4FBF4328F30BC09183D382C28247
:100830002E0D3F1D401F511F248335834683578350
:1008400083E0808324813581468157815523D4F408
:10085000C901AA2797FDA095BA2F81709070A0704A
:10086000B0705695479537952795822B932BA42BDF
:10087000B52B84839583A683B78382819381019668
:10088000938382832F0101C02501C201E0E1CDB72E
:10089000DEB70C946108A0E2B0E0E1E5F4E00C946E
:1008A0004F0869837A838B839C832D833E834F8398
:1008B000588709E0E02EF12CEC0EFD1EB701CE01A9
:1008C00001960E947D078E010F5E1F4FB801CE0179
:1008D00005960E947D078A8991E089278A8BAE015F
:1008E000475E5F4FB801C7010E9405030E949D0645
:1008F000E6E0A0960C946B08A0E2B0E0E2E8F4E039
:100900000C944F0869837A838B839C832D833E8369
:100910004F83588789E0E82EF12CEC0EFD1EB701BD
:10092000CE0101960E947D078E010F5E1F4FB80118
:10093000CE0105960E947D07AE01475E5F4FB8016C
:10094000C7010E9405030E949D06E6E0A0960C9454
:100950006B08A0E2B0E0EFEAF4E00C94450869838C
:100960007A838B839C832D833E834F83588799E0C2
:10097000E92EF12CEC0EFD1EB701CE0101960E946E
:100980007D078E010F5E1F4FB801CE0105960E94B4
:100990007D079985923088F089898230C0F0943043
:1009A00019F4823029F009C0843029F4923079F4A6
:1009B00062E072E0C6C0923041F420E09A858A89F4
:1009C000981321E02A87B701BCC0823041F420E0AF
:1009D0009A858A89981321E02A8BB801B2C0CD8408
:1009E000DE84EF84F8880D891E892F89388D88244C
:1009F0009924540140E050E060E070E04424552424
:100A00003201E0E0F0E0C60181709070892BD9F0EE
:100A1000800E911EA21EB31EDB01CA01840D951D1E
:100A2000A61DB71D40E050E060E070E08016910622
:100A3000A206B30620F441E050E060E070E0480F09
:100A4000591F6A1F7B1F440C551C661C771C37FFFF
:100A500008C081E090E0A0E0B0E0482A592A6A2A64
:100A60007B2A3196E032F10549F0000F111F221F59
:100A7000331FF694E794D794C794C5CF8B899C898C
:100A80002B853C85820F931F02969C8F8B8F1A8E2D
:100A90009A858A89981711F081E08A8F2B8D3C8D79
:100AA00017C0CA0181709070892B61F0B694A79429
:100AB0009794879480E090E0A0E0B0E8882A992A93
:100AC000AA2ABB2A76956795579547952F5F3F4F82
:100AD00077FDE7CFC9010BC0440F551F661F771F75
:100AE000B7FC4160880C991CAA1CBB1C01974030C4
:100AF000A0E05A07A0E06A07A0E47A0768F39C8F99
:100B00008B8FDB01CA018F779070A070B07080343A
:100B10009105A105B10561F447FD0AC08114910456
:100B2000A104B10429F0405C5F4F6F4F7F4F4078C4
:100B30004D8F5E8F6F8F78A383E0898FBE01675ED4
:100B40007F4FCB010E949D06E0E1A0960C946108C6
:100B5000A8E1B0E0EEEAF5E00C944F0869837A83EF
:100B60008B839C832D833E834F83588789E0E82EB7
:100B7000F12CEC0EFD1EB701CE0101960E947D07FF
:100B80008E010F5E1F4FB801CE0105960E947D07B2
:100B90008985823060F08989823048F0B801C701C8
:100BA0000E94ED07282F332727FD309502C02FEF35
:100BB0003FEFC901E6E068960C946B08A8E1B0E04D
:100BC000E4EEF5E00C944F0869837A838B839C8371
:100BD0002D833E834F83588789E0E82EF12CEC0E5D
:100BE000FD1EB701CE0101960E947D078E010F5EAA
:100BF0001F4FB801CE0105960E947D07898582307E
:100C000060F08989823048F0B801C7010E94ED0781
:100C1000282F332727FD309502C02FEF3FEFC90162
:100C2000E6E068960C946B08A8E1B0E0EAE1F6E033
:100C30000C944F0869837A838B839C832D833E8336
:100C40004F83588789E0E82EF12CEC0EFD1EB7018A
:100C5000CE0101960E947D078E010F5E1F4FB801E5
:100C6000CE0105960E947D078985823060F08989D2
:100C7000823048F0B801C7010E94ED07282F3327C2
:100C800027FD309502C021E030E0C901E6E068961A
:100C90000C946B08ACE0B0E0E0E5F6E00C9453088F
:100CA00069837A838B839C83BE016B5F7F4FCE0108
:100CB00001960E947D078D818230A9F1823098F1E2
:100CC000843021F48E81882359F40FC02F81388518
:100CD00037FD29C06E812F31310564F0662329F07C
:100CE00020E030E040E050E822C02FEF3FEF4FEF30
:100CF0005FE71DC08EE190E0821B930B29853A854A
:100D00004B855C8504C056954795379527958A9500
:100D1000D2F7662361F050954095309521953F4F6D
:100D20004F4F5F4F04C020E030E040E050E0CA0188
:100D3000B901E2E02C960C946F089F92AF92BF929B
:100D4000CF92DF92EF92FF920F931F93EE24FF2436
:100D50008701FC0124813581468157819180808102
:100D6000823010F44061A2C0843009F49BC082300C
:100D700029F420E030E040E050E005C021153105C5
:100D80004105510519F4E0E0F0E092C082819381C1
:100D90006FEF823896070CF05AC062E87FEF681B4D
:100DA000790B6A3171052CF020E030E040E050E032
:100DB0002AC0AA24BB24650181E090E0A0E0B0E055
:100DC000062E04C0880F991FAA1FBB1F0A94D2F7D2
:100DD0000197A109B10982239323A423B523009786
:100DE000A105B10529F071E0A72EB12CC12CD12CA1
:100DF00004C056954795379527956A95D2F72A29C5
:100E00003B294C295D29DA01C9018F779070A070C8
:100E1000B07080349105A105B10539F427FF09C0F0
:100E2000205C3F4F4F4F5F4F04C0215C3F4F4F4FFF
:100E30005F4F80E090E0203060E0360760E04607DA
:100E400060E4560710F081E090E0FC0123C0803898
:100E5000910544F5FC01E158FF4FDA01C9018F7794
:100E60009070A070B07080349105A105B10539F47F
:100E700027FF09C0205C3F4F4F4F5F4F04C0215CEC
:100E80003F4F4F4F5F4F57FF05C0569547953795DA
:100E90002795319687E056954795379527958A95FA
:100EA000D1F706C020E030E040E050E0EFEFF0E0A6
:100EB000E22EF32E942F9F77802F8078892B9E2F00
:100EC0009795992797958F77082F092B9E2F9695A1
:100ED000812F8078892B9794992497948F77182F56
:100EE0001929C801B7011F910F91FF90EF90DF9072
:100EF000CF90BF90AF909F900895CF93DF93FC0168
:100F0000DB01208131819281492F4F7750E0991F79
:100F10009927991F8381E82FEE0FE92B6E2F70E040
:100F2000881F8827881FED018983EE2371F521151D
:100F300031054105510511F482E02FC06E57704014
:100F4000FD017383628367E0220F331F441F551F27
:100F50006A95D1F783E08C930AC0220F331F441F98
:100F6000551FED018A819B8101979B838A832030E5
:100F7000E0E03E07E0E04E07E0E45E0770F3ED01DD
:100F80002C833D834E835F8325C0EF3F79F4211589
:100F900031054105510519F484E08C931BC044FFD1
:100FA00003C081E08C9311C01C920FC06F5770403A
:100FB000ED017B836A8383E08C9387E0220F331FEC
:100FC000441F551F8A95D1F75064FD012483358352
:100FD00046835783DF91CF910895CF93DF93DC0150
:100FE000FB019C91923008F446C08081823008F465
:100FF00042C0943049F4ED016981843079F58181F2
:1010000090E0861B91093CC0843021F0923031F48D
:101010008230A1F18181882371F52AC0ED016981B7
:101020008230E1F081816817C9F4ED012A813B81AA
:1010300082819381821793078CF028173907B4F0C7
:10104000ED018C819D81AE81BF81248135814681F6
:101050005781281739074A075B0718F4662341F4BC
:101060000AC082179307A407B50740F4662319F452
:101070008FEF9FEF05C081E090E002C080E090E03C
:10108000DF91CF9108952F923F924F925F926F928E
:101090007F928F929F92AF92BF92CF92DF92EF9208
:1010A000FF920F931F93CF93DF93CDB7DEB7CA1B89
:1010B000DB0B0FB6F894DEBF0FBECDBF19942A88A4
:1010C000398848885F846E847D848C849B84AA845C
:1010D000B984C884DF80EE80FD800C811B81AA81E9
:1010E000B981CE0FD11D0FB6F894DEBF0FBECDBFB4
:0610F000ED010895FFCFA1
:0A10F60001010000000000000000EE
:00000001FF
