:100000000C9472000C9493000C9493000C94930045
:100010000C9493000C9493000C9493000C94930014
:100020000C9493000C9493000C9493000C94930004
:100030000C9493000C9493000C9493000C949300F4
:100040000C9493000C9493000C9493000C949300E4
:100050000C9493000C9493000C9493000C949300D4
:100060000C9493000C9496030C944B030C94930003
:100070000C9493000C9493000C9493000C949300B4
:100080000C9493000C9493000C9493000C949300A4
:100090000C9493000C9493000C9493000C94930094
:1000A0000C9493000C9493000C9493000C94930084
:1000B0000C9493000C9493000C9493000C94930074
:1000C0000C9493000C9493000C9493000C94930064
:1000D0000C9493000C9493000C9493000C94930054
:1000E0000C94930011241FBECFEFD1E2DEBFCDBF31
:1000F00000E00CBF12E0A0E0B2E0EEECF0E100E0C6
:100100000BBF02C007900D92AE37B107D9F714E0CC
:10011000AEE7B2E001C01D92AD39B107E1F70E9430
:1001200095000C9466080C9400000F93CF93DF9316
:10013000CDB7DEB7789401E020E048E060E875E2F2
:1001400080E00E94EC0580E092E00E942504A1E09E
:10015000B1E0E1E0F1E0808180648C93A2E0B1E065
:10016000E2E0F1E080818F7B8C930E94C0000E94CE
:1001700025028CE092E00E9425040E949504F5CFB0
:100180000F931F93CF93DF93CDB7DEB726970FB6AC
:10019000F894DEBF0FBECDBF0E94DD0583E292E082
:1001A0000E9425048DE392E00E9425040E944B04E6
:1001B000882309F43BC10E94950489838981282FF3
:1001C00030E03E832D834D815E814333510509F438
:1001D0003FC08D819E818433910584F4ED81FE8141
:1001E000E133F10539F12D813E81223331054CF5A2
:1001F0004D815E8140335105B1F04DC08D819E81AE
:100200008533910599F1ED81FE81E533F1053CF1EE
:100210002D813E812633310581F14D815E81473349
:10022000510591F138C085E091E09093860280936A
:10023000850235C086E291E0909386028093850224
:100240002EC089E491E0909386028093850227C0B6
:100250008DE591E0909386028093850220C088E826
:1002600091E0909386028093850219C088EB91E01B
:10027000909386028093850212C08DEE91E0909358
:100280008602809385020BC08BE092E090938602F9
:100290008093850204C0109286021092850280919C
:1002A000850290918602009789F1809181028F5F8B
:1002B000809381028091810299EC692F0E94F60758
:1002C000892F8093810280918102882F90E0209174
:1002D000850230918602880F991FFC01E957FD4F76
:1002E000318320839091800280918102981771F46C
:1002F000809180028F5F809380028091800299ECD0
:10030000692F0E94F607892F80938002A1EBB0E04D
:10031000E2EBF0E0108280818C93E0EBF0E083E28E
:10032000808303EB10E080918502909186029C010E
:1003300040E050E089E09DE3A0E0B0E0BC01CD01E9
:100340000E942908DA01C9018150F801808304EB79
:1003500010E0E3EBF0E080818695282F30E08AE51D
:1003600090E0AC01249FC001259F900D349F900D1B
:10037000112424E630E0B9010E941608CB01F801EF
:10038000808321EB30E03C832B8380918502909128
:100390008602009711F41A8202C03FE03A832A8154
:1003A000EB81FC812083EB81FC81808186E990E0F8
:1003B0000E940803A1EBB0E0E2EBF0E01082808144
:1003C0008C93E0EBF0E083E2808303EB10E089E0C4
:1003D0009DE3A0E0B0E020E030E040E050E0BC0170
:1003E000CD010E942908DA01C9018150F8018083FA
:1003F00004EB10E0E3EBF0E080818695282F30E0FD
:100400008AE590E0AC01249FC001259F900D349FA8
:10041000900D112424E630E0B9010E941608CB01AA
:10042000F8018083E1EBF0E01082808189818337DD
:1004300009F0BCCE26960FB6F894DEBF0FBECDBF36
:10044000DF91CF911F910F9108950F931F93CF9339
:10045000DF93CDB7DEB725970FB6F894DEBF0FBE9A
:10046000CDBF809180028A838A818093800270C090
:10047000A1EBB0E0E2EBF0E0108280818C93E0EB46
:10048000F0E083E2808303EB10E080918002882F0C
:1004900090E0880F991FFC01E957FD4F8081918101
:1004A0009C0140E050E089E09DE3A0E0B0E0BC01A9
:1004B000CD010E942908DA01C9018150F801808329
:1004C00004EB10E0E3EBF0E080818695282F30E02C
:1004D0008AE590E0AC01249FC001259F900D349FD8
:1004E000900D112424E630E0B9010E941608CB01DA
:1004F000F801808341EB50E05D834C838091800262
:10050000882F90E0880F991FFC01E957FD4F8081EB
:100510009181009711F41B8202C05FE05B834B81E5
:10052000EC81FD814083EC81FD81808186E990E052
:100530000E940803809180028F5F809380028091E7
:10054000800299EC692F0E94F607892F8093800220
:100550009091800280918102981709F089CFA1EBD8
:10056000B0E0E2EBF0E0108280818C93E0EBF0E011
:1005700083E2808303EB10E089E09DE3A0E0B0E03C
:1005800020E030E040E050E0BC01CD010E942908AD
:10059000DA01C9018150F801808304EB10E0E3EB3C
:1005A000F0E080818695282F30E08AE590E0AC016C
:1005B000249FC001259F900D349F900D112424E6A7
:1005C00030E0B9010E941608CB01F8018083E1EB0D
:1005D000F0E0108280818BE592E00E9425040E9469
:1005E000950489838981833709F43ECF89818335D6
:1005F00009F43ACF8A818093800225960FB6F89449
:10060000DEBF0FBECDBFDF91CF911F910F91089537
:10061000CF93DF93CDB7DEB722970FB6F894DEBF46
:100620000FBECDBF9A838983E6E4F0E086E0808345
:10063000E4E4F0E01082E5E4F0E083E08083A5E309
:10064000B0E0E5E3F0E0808181608C9310C0E5E3E9
:10065000F0E08081882F90E0817090700097B9F36E
:10066000A5E3B0E0E5E3F0E0808181608C938981CF
:100670009A8101979A83898389819A812FEF8F3F8D
:10068000920729F722960FB6F894DEBF0FBECDBFB2
:10069000DF91CF9108951F920F920FB60F92112400
:1006A0002F933F935F936F937F938F939F93AF931A
:1006B000BF93EF93FF93CF93DF93CDB7DEB79091C6
:1006C000590480915A04981741F4A1ECB0E0E1EC90
:1006D000F0E080818F7D8C9317C080915904882F22
:1006E00090E0019620E430E0B9010E941608809362
:1006F0005904A6ECB0E080915904882F90E0FC01E9
:10070000E75EFB4F80818C93DF91CF91FF91EF915A
:10071000BF91AF919F918F917F916F915F913F9129
:100720002F910F900FBE0F901F9018951F920F9250
:100730000FB60F9211242F933F935F936F937F9384
:100740008F939F93AF93BF93EF93FF93CF93DF93D9
:10075000CDB7DEB780919B04E82FF0E080919C0438
:10076000882F90E0019620E430E0B9010E9416083D
:10077000E817F907B9F080919C04882F90E0019662
:1007800020E430E0B9010E94160880939C04809117
:100790009C04882F90E0E6ECF0E02081FC01E55A13
:1007A000FB4F2083DF91CF91FF91EF91BF91AF91EC
:1007B0009F918F917F916F915F913F912F910F90BA
:1007C0000FBE0F901F901895CF93DF93CDB7DEB774
:1007D00021970FB6F894DEBF0FBECDBF89838091FD
:1007E0005904E82FF0E080915A04882F90E0019698
:1007F00020E430E0B9010E941608E817F90779F300
:1008000080915A04882F90E0019620E430E0B901ED
:100810000E94160880935A0480915A04882F90E011
:10082000FC01E75EFB4F89818083A1ECB0E0E1EC45
:10083000F0E0808180628C9321960FB6F894DEBF41
:100840000FBECDBFDF91CF910895CF93DF93CDB78A
:10085000DEB722970FB6F894DEBF0FBECDBF9A83E6
:1008600089830BC0E981FA81208189819A8101966F
:100870009A838983822F0E94E403E981FA8180812F
:10088000882381F722960FB6F894DEBF0FBECDBF46
:10089000DF91CF910895CF93DF93CDB7DEB7229745
:1008A0000FB6F894DEBF0FBECDBF90919B04809130
:1008B0009C041A821982981721F081E090E09A83B3
:1008C000898389819A8122960FB6F894DEBF0FBE84
:1008D000CDBFDF91CF910895CF93DF93CDB7DEB732
:1008E0000E944B048823E1F380919B04882F90E0C1
:1008F000019620E430E0B9010E94160880939B0421
:1009000080919B04882F90E0FC01E55AFB4F808189
:1009100080938202809182020E94E403809182028D
:10092000882F90E0DF91CF910895CF93DF93CDB7DB
:10093000DEB70E944B048823E1F380919B04882F4B
:1009400090E0019620E430E0B9010E9416088093FF
:100950009B0480919B04882F90E0FC01E55AFB4F9B
:1009600080818093830280918302882F90E0DF91C1
:10097000CF910895CF93DF93CDB7DEB725970FB60C
:10098000F894DEBF0FBECDBF9D838C8384E18B8343
:100990008C819D819A8389830E946C048093840258
:1009A00044C080918402883029F18B81882F90E0A7
:1009B0009C0189819A81820F931F9C0121503040B4
:1009C0008C819D818217930758F480918402EC8179
:1009D000FD8180838C819D8101969D838C8321C0C4
:1009E00088E00E94E40380E20E94E40388E00E9421
:1009F000E40317C02C813D8189819A81281739072A
:100A000021F480E20E94E4030CC080E20E94E4032F
:100A1000809184020E94E4038C819D8101979D83D3
:100A20008C830E946C0480938402809184028D30B8
:100A300009F0B7CF8AE00E94E403EC81FD811082C7
:100A400025960FB6F894DEBF0FBECDBFDF91CF91D4
:100A50000895CF93DF93CDB7DEB722970FB6F89402
:100A6000DEBF0FBECDBF89836A838A819AE0692F7A
:100A70000E94F607892F805D809369028A819AE03F
:100A8000692F0E94F6078A838A819AE0692F0E9463
:100A9000F607892F805D8093680289819AE0692F2B
:100AA0000E94F607892F805D80936C0289819AE00D
:100AB000692F0E94F607898389819AE0692F0E9435
:100AC000F607892F805D80936B0286E692E00E9494
:100AD000250422960FB6F894DEBF0FBECDBFDF917E
:100AE000CF910895CF93DF93CDB7DEB723970FB69D
:100AF000F894DEBF0FBECDBF89838981282F30E0F7
:100B00003B832A838A819B8181329105B1F12A81BD
:100B10003B812232310584F48A819B818F3191059A
:100B200021F12A813B81203231051CF58A819B818C
:100B30008E319105B1F034C02A813B8123323105D9
:100B400021F18A819B8183329105DCF02A813B81EE
:100B500024323105F1F08A819B8185329105E9F0DB
:100B60001FC080E3809372021BC081E380937202F6
:100B700017C082E38093720213C083E380937202F2
:100B80000FC084E3809372020BC085E380937202EE
:100B900007C086E38093720203C087E380937202EA
:100BA0008FE692E00E94250423960FB6F894DEBFEC
:100BB0000FBECDBFDF91CF910895CF93DF93CDB717
:100BC000DEB785E792E00E9425048AE792E00E9462
:100BD0002504DF91CF9108950F93CF93DF93CDB785
:100BE000DEB72C970FB6F894DEBF0FBECDBF8B8358
:100BF0007D836C834E832F83088780EC90E09A83FB
:100C000089838B81833051F480E391E09A838983D7
:100C10000BC089819A8108969A8389838B81815040
:100C20008B838B818F3FA9F789819A81DC01119693
:100C300089819A81FC013196808188618C938C81B5
:100C40009D819C0140E050E080E492E4AFE0B0E0A0
:100C5000BC01CD010E942908DA01C90101979D83D9
:100C60008C8389819A81FC0135968C819D81892FA5
:100C70009927808389819A81FC0134968C818083B5
:100C800089819A81DC01119689819A81FC013196D2
:100C900080818B7F8C9389819A81DC011296898176
:100CA0009A81FC0132968081897F8C938E81282FD6
:100CB00030E03C872B878B859C8587309105B9F088
:100CC0002B853C8528303105F1F08B859C8586305D
:100CD000910509F023C089819A81DC0112968981EE
:100CE0009A81FC013296808182608C9317C0898141
:100CF0009A81DC01129689819A81FC013296808169
:100D000084608C930BC089819A81DC011296898161
:100D10009A81FC013296808186608C9389819A81C8
:100D2000DC01129689819A81FC01329680818F7C48
:100D30008C938F81282F30E03A87298789859A857F
:100D40008130910531F029853A852230310569F0ED
:100D500017C089819A81DC01129689819A81FC01F0
:100D60003296808180638C930BC089819A81DC01EB
:100D7000129689819A81FC013296808180628C93DF
:100D80008885823059F489819A81DC0112968981A3
:100D90009A81FC013296808188608C9389819A8146
:100DA000DC01119689819A81FC0131968081806AEB
:100DB0008C9310929B0410929C04109259041092F0
:100DC0005A0478942C960FB6F894DEBF0FBECDBFB0
:100DD000DF91CF910F910895CF93DF93CDB7DEB719
:100DE00026970FB6F894DEBF0FBECDBF9E838D83CE
:100DF0001C821B821A82198236C0ED81FE8180819D
:100E0000882F90E0C0979A83898389819A8199235A
:100E10007CF189819A818A30910554F529813A8142
:100E20008B819C81820F931F9C838B838D819E81FC
:100E300001969E838D83ED81FE818081803398F0C1
:100E4000ED81FE8180818A3370F48B819C819C01CD
:100E5000220F331FC901880F991F880F991F820F16
:100E6000931F9C838B83ED81FE818081882329F6EB
:100E70008B819C8126960FB6F894DEBF0FBECDBF46
:100E8000DF91CF910895CF93DF93CDB7DEB7299748
:100E90000FB6F894DEBF0FBECDBF9D838C837F83DA
:100EA0006E8348878C819D819B838A838885282FC8
:100EB00030E08E819F81B9010E940208805D8983A4
:100EC00089818A3328F08981982F995F998702C098
:100ED00089818987EC81FD81998590838C819D81B1
:100EE00001969D838C838885282F30E08E819F8199
:100EF000B9010E940208CB019F838E838E819F815E
:100F00000097A1F6EC81FD8110828C819D81019773
:100F10009D838C8318C0EA81FB8180818983EC8169
:100F2000FD818081EA81FB818083EC81FD81898163
:100F300080838A819B8101969B838A838C819D819A
:100F400001979D838C832A813B818C819D81281709
:100F5000390708F329960FB6F894DEBF0FBECDBF50
:100F6000DF91CF910895CF93DF93CDB7DEB7ADE298
:100F7000B0E0EDE2F0E080818E7F8C93AEE2B0E0F5
:100F8000EEE2F0E0808181608C93E6E4F0E0108294
:100F9000E4E4F0E01082E5E4F0E01082ECE2F0E05E
:100FA0008081882F90E0817090708823B9F7E5E404
:100FB000F0E082E08083ECE2F0E08081882F90E036
:100FC000817090700097B9F3E5E4F0E01082A4EC32
:100FD000B0E0E6E4F0E080818695882F90E001970C
:100FE00011969C938E93DF91CF910895991B79E090
:100FF00004C0991F961708F0961B881F7A95C9F7A9
:1010000080950895AA1BBB1B51E107C0AA1FBB1FF7
:10101000A617B70710F0A61BB70B881F991F5A9584
:10102000A9F780959095BC01CD01089597FB092EF5
:1010300007260AD077FD04D0E5DF06D000201AF499
:10104000709561957F4F0895F6F7909581959F4F24
:10105000089597FB092E05260ED057FD04D014D015
:101060000AD0001C38F450954095309521953F4F9B
:101070004F4F5F4F0895F6F7909580957095619565
:101080007F4F8F4F9F4F0895A1E21A2EAA1BBB1BC3
:10109000FD010DC0AA1FBB1FEE1FFF1FA217B30744
:1010A000E407F50720F0A21BB30BE40BF50B661F5A
:1010B000771F881F991F1A9469F76095709580951E
:0E10C00090959B01AC01BD01CF010895FFCFBB
:1010CE00496E696369616D6F730A0D00656E7465B3
:1010DE0072207061726120636F6E74696E756172D9
:1010EE000A0D000A0D47726162616E646F207365AE
:1010FE006375656E6369612E2E2E0A0D00277327A8
:10110E002070617261206573637568617220756C01
:10111E00746D6F73203330730A0D006465206E7525
:10112E00657A3F0A0D001B5B30303B303048001BA8
:0E113E005B33306D001B5B324A001B5B4800C8
:00000001FF
