:100000000C94A2060C94C3060C94C3060C94C3066D
:100010000C94C3060C94C3060C94C3060C94C3063C
:100020000C94C3060C94C3060C94C3060C94C3062C
:100030000C94C3060C94C3060C94C3060C94C3061C
:100040000C94C3060C94C3060C94C3060C94C3060C
:100050000C94C3060C945C0C0C94C3060C94C3065D
:100060000C94C3060C9403080C94B8070C94C306B4
:100070000C94C3060C94C3060C94C3060C94C306DC
:100080000C94C3060C94C3060C94C3060C94C306CC
:100090000C94C3060C94C3060C94C3060C94C306BC
:1000A0000C94C3060C94C3060C94C3060C94C306AC
:1000B0000C94C3060C94C3060C94C3060C94C3069C
:1000C0000C94C3060C94C3060C94C3060C94C3068C
:1000D0000C94C3060C94C3060C94C3060C94C3067C
:1000E0000C94C306B801F401B801F401B801F4019D
:1000F0005D0177010B027D00B801F4015D0177011C
:100100000B027D00B801E8039302F4019302F401AD
:100110009302F401BA0277010B027D009F01F40102
:100120005D0177010B027D00B801E8037003F40163
:10013000B8017701B8017D007003F4013E03FA00B5
:100140001003FA00E4027D00BA027D00E402FA0026
:100150000000FA00D201FA006E02F4014B02FA002C
:100160002A02FA000B027D00EE017D000B02FA006C
:100170000000FA005D017D009F01F4015D0177013F
:10018000B8017D000B02F401B80177010B027D007C
:100190009302E8037003F401B8017701B8017D0010
:1001A0007003F4013E03FA001003FA00E4027D003C
:1001B000BA027D00E402FA000000FA00D201FA005F
:1001C0006E02F4014B02FA002A02FA000B027D00D3
:1001D000EE017D000B02FA000000FA005D01FA005A
:1001E0009F01F4015D0177010B027D00B801F4016C
:1001F0005D01770105017D00B801E803F700BB0050
:100200002601BB007201BB00EE017102B801BB0008
:100210009F0177017201BB0026017701F700EE0212
:10022000F700BB002601BB007201BB00EE017102AA
:10023000B801BB009F0177017201BB002601770165
:10024000F700EE022601BB002601BB002601BB0021
:100250001501BB0026013801DC0071022601BB003C
:100260002601BB001501BB0026013801DC00380166
:100270007201BB007201BB007201BB004901BB00EF
:1002800072013801150171027201BB007201BB00DD
:100290004901BB0072013801150138018701FA00DC
:1002A0008701FA008701FA008701FA004901FA0084
:1002B0002601FA001501DC058701FA008701FA0022
:1002C0008701FA008701FA004901FA002601FA00C5
:1002D0001501DC052601BB002601BB002601BB0081
:1002E0001501BB0026013801DC0071022601BB00AC
:1002F0002601BB001501BB0026013801DC003801D6
:100300007201BB007201BB007201BB004901BB005E
:1003100072013801150171027201BB007201BB004C
:100320004901BB0072013801150138018701FA004B
:100330008701FA008701FA008701FA004901FA00F3
:100340002601FA001501DC058701FA008701FA0091
:100350008701FA008701FA004901FA002601FA0034
:100360001501DC058701FA0000003E008701FA0054
:100370000000BB0049017D0000003E005D017D00E2
:1003800000003E0087017D0000003E00B8017D00B6
:1003900000003E008701FA0000007D005D01FA00C8
:1003A00000007D004901FA0000007D002601FA00EE
:1003B00000007D004901FA0000007D004901FA00BB
:1003C0000000FA0005017D0000003E0026017D00CE
:1003D00000003E0049017D0000003E005D017D00FF
:1003E00000007D004901FA0000007D002601FA00AE
:1003F00000007D000501FA0000007D00ED01FA001B
:1004000000007D00B801FA0000007D00B8017D0009
:100410000000FA000501FA0000007D00B801FA00B2
:1004200000007D008701FA0000007D000501F40155
:100430000000FA0026017D0000003E0049017D0019
:1004400000003E005D01FA0000007D004901FA0055
:1004500000007D002601FA0000007D000501FA0081
:1004600000007D002601FA0000007D000501FA0071
:1004700000007D000000FA000000F4010B0277018B
:10048000000029000B02770100003E00BA02DC05E3
:1004900000003E007003770100003E00100377016A
:1004A00000003E00BA02770100003E001003DC05A8
:1004B0000000FA004B02FA0000003E009302FA002E
:1004C00000007D00BA02F40100007D00BA0277014D
:1004D00000003E0010037D0000003E00BA027D00D7
:1004E0000000F40193027D0000003E000000F401D2
:1004F0000B027701000029000B02770100003E008B
:10050000BA02DC0500003E007003770100003E00E7
:100510001003770100003E00BA02770100003E00A0
:100520001003DC050000FA004B02FA0000003E0058
:100530009302FA0000007D00BA02F40100007D0081
:10054000BA02770100003E0010037D0000003E006B
:10055000BA027D000000F40193027D0000003E001D
:100560006E02FA00D201FA008701FA006E02FA0068
:10057000D201FA008701FA006E02FA00D201FA00F5
:100580002A02FA00D201FA005D01FA002A02FA00FA
:10059000D201FA005D01FA002A02FA00D201FA0043
:1005A0002A02FA00D201FA005D01FA002A02FA00DA
:1005B000D201FA005D01FA002A02FA00D201FA0023
:1005C0000501FA009F01FA005D01FA000B02FA0032
:1005D0009F01FA005D01FA000B02FA009F01FA0088
:1005E0006E02FA00D201FA008701FA006E02FA00E8
:1005F000D201FA008701FA006E02FA00D201FA0075
:100600002A02FA00D201FA005D01FA002A02FA0079
:10061000D201FA005D01FA002A02FA00D201FA00C2
:100620002A02FA00D201FA005D01FA002A02FA0059
:10063000D201FA005D01FA002A02FA00D201FA00A2
:100640000B02FA009F01FA005D01FA000B02FA00AA
:100650009F01FA005D01FA000B02FA009F01FA0007
:100660006E02A600D201A6008701A6006E02A600B7
:10067000D201A6008701A6006E02A600D201A60044
:100680002A02A600D201A6005D01A6002A02A60049
:10069000D201A6005D01A6002A02A600D201A60092
:1006A0002A02A600D201A6005D01A6002A02A60029
:1006B000D201A6005D01A6002A02A600D201A60072
:1006C0000B02A6009F01A6005D01A6000B02A6007A
:1006D0009F01A6005D01A6000B02A6009F01A600D7
:1006E0006E02A600D201A6008701A6006E02A60037
:1006F000D201A6008701A6006E02A600D201A600C4
:100700002A02A600D201A6005D01A6002A02A600C8
:10071000D201A6005D01A6002A02A600D201A60011
:100720002A02A600D201A6005D01A6002A02A600A8
:10073000D2017D005D01A6002A02A600D201A6001A
:100740000B02A6009F01A6005D01A6000B02A600F9
:100750009F01A6005D01A6000B02A6009F01A60056
:10076000870177018701FA0087017701D2017D00B7
:100770002A027D000B0277015D0177015D0177019F
:100780005D01FA005D017701D20153005D01FA00BD
:100790005D0177018701FA00870177018701FA007F
:1007A000870177015D017D002A027D000B027D003B
:1007B0005D0177015D0177015D01FA005D0177015F
:1007C0005D0177016E02A600D201A6008701A60096
:1007D0006E02A600D201A6008701A6006E02A60046
:1007E000D201A6002A02A600D201A6005D01A60041
:1007F0002A02A600D201A6005D01A6002A02A600D8
:10080000D201A6002A02A600D201A6005D01A60020
:100810002A02A600D201A6005D01A6002A02A600B7
:10082000D201A6000501A6009F01A6005D01A60059
:100830000B02A6009F01A6005D01A6000B02A60008
:100840009F01A6006E02A600D201A6008701A600A5
:100850006E02A600D201A6008701A6006E02A600C5
:10086000D201A6002A02A600D201A6005D01A600C0
:100870002A02A600D201A6005D01A6002A02A60057
:10088000D201A6002A02A600D201A6005D01A600A0
:100890002A02A600D201A6005D01A6002A02A60037
:1008A000D201A6000B02A6009F01A6005D01A600D2
:1008B0000B02A6009F01A6005D01A6000B02A60088
:1008C0009F01A6004901960049019600000096008C
:1008D0004901960000009600050196004901960026
:1008E00000009600870196000000960000002C0191
:1008F000C40096000000960000002C01050196003F
:100900000000960000009600C400960000002C0134
:10091000A50096000000960000009600DC009600FE
:1009200000009600F700960000009600E90096008F
:10093000DC00960000009600C400C8004901C80011
:100940008701C800B8019600000096005D0196007E
:10095000870196000000960049019600000096006D
:100960000501960026019600F700960000002C0174
:10097000050196000000960000009600C400960055
:1009800000002C01A50096000000960000009600D3
:10099000DC00960000009600F7009600000096002C
:1009A000E9009600DC00960000009600C400C80034
:1009B0004901C8008701C800B801960000009600F0
:1009C0005D0196008701960000009600490196009F
:1009D000000096000501960026019600F70096009B
:1009E00000002C0100002C01870196007201960086
:1009F00049019600370196000000960049019600D3
:100A000000009600D0009600DC00960005019600DC
:100A100000009600DC009600050196002601960075
:100A200000002C0187019600720196004901960092
:100A300037019600000096004901960000009600DC
:100A40000B029600000096000B0296000B02960027
:100A50000000960000002C0100002C018701960088
:100A60007201960049019600370196000000960039
:100A70004901960000009600D0009600DC00960028
:100A80000501960000009600DC0096000501960026
:100A90002601960000002C01370196000000960008
:100AA000000096002601960000002C01050196002A
:100AB0000000960000002C010000580200002C01EC
:100AC0008701960072019600490196003701960051
:100AD000000096004901960000009600D0009600A4
:100AE000DC0096000501960000009600DC009600F0
:100AF000050196002601960000002C018701960052
:100B00007201960049019600370196000000960098
:100B100049019600000096000B0296000000960026
:100B20000B0296000B0296000000960000002C01BC
:100B300000002C0187019600720196004901960081
:100B400037019600000096004901960000009600CB
:100B5000D0009600DC00960005019600000096008B
:100B6000DC009600050196002601960000002C018D
:100B700037019600000096000000960026019600BE
:100B800000002C01050196000000960000002C01D9
:100B9000000058020501960005019600000096002D
:100BA00005019600000096000501960026019600BA
:100BB000000096004901960005019600000096008D
:100BC000DC009600C40096000000960000002C0196
:100BD00005019600050196000000960005019600AB
:100BE0000000960005019600260196004901960036
:100BF0000000B00405019600050196000000960073
:100C00000501960000009600050196002601960059
:100C1000000096004901960005019600000096002C
:100C2000DC009600C40096000000960000002C0135
:100C3000490196004901960000009600490196007E
:100C400000009600050196004901960000009600FC
:100C5000870196000000960000002C01C400960059
:100C60000000960000002C01490196000501960045
:100C700000009600C400960000002C01D0009600F1
:100C800000009600DC0096005D01960000009600D2
:100C90005D019600DC0096000000960000002C012B
:100CA000F700C800B801C800B801C800B801C80002
:100CB0008701C8005D01C800490196000501960042
:100CC00000009600DC009600C4009600000096002C
:100CD00000002C01490196000501960000009600D5
:100CE000C400960000002C01D00096000000960081
:100CF000DC0096005D019600000096005D01960004
:100D0000DC0096000000960000002C01F700960021
:100D10005D019600000096005D0196005D01C8002F
:100D20004901C8002601C80005019600A5009600EB
:100D300000009600A5009600830096000000960033
:100D400000002C0111241FBECFEFD1E2DEBFCDBFCA
:100D500000E00CBF12E0A0E0B2E0EAE8FFE100E052
:100D60000BBF02C007900D92A238B107D9F713E06C
:100D7000A2E8B2E001C01D92A938B107E1F70E94D4
:100D8000C5060C94C30F0C9400000F93DF93CF9310
:100D9000CDB7DEB7C756D0400FB6F894DEBF0FBE52
:100DA000CDBF80E060E070E048E021E002E00E941A
:100DB000340A0E94F60B80E092E00E9492080E94A2
:100DC000390C0E94790EA1E0B1E0E1E0F1E0808110
:100DD00080648C930E948B0E282F30E0A8963FAF42
:100DE0002EAFA897A8968EAD9FADA897833091059A
:100DF00009F463C0A8962EAD3FADA8972430310505
:100E00007CF4A8968EAD9FADA8978130910501F135
:100E1000A8962EAD3FADA8972230310589F0DACFE4
:100E2000A8968EAD9FADA89784309105C9F0A8967D
:100E30002EAD3FADA8972530310509F479C0CACF52
:100E400080E192E00E94920882E00E94140EC2CFDC
:100E500085E192E00E94920881E00E94140EBACFD0
:100E60008CE192E00E949208809194028F5F8093BF
:100E700094029091940280918102981711F410923B
:100E8000940280919402882F90E0880F991FFC01B2
:100E9000E359FD4F80819181AC0180919402882FAC
:100EA00090E0880F991FFC01E958FD4F20813181A6
:100EB000CA01B9010E94C00D8DCF83E292E00E9469
:100EC000920880919402882341F480918102382F06
:100ED0003150A6963FAFA6970AC0809194028150E8
:100EE0008093940280919402A6968FAFA697A696BF
:100EF0009FADA6979093940280919402882F90E0E2
:100F0000880F991FFC01E359FD4F80819181AC014D
:100F100080919402882F90E0880F991FFC01E95876
:100F2000FD4F20813181CA01B9010E94C00D52CF0D
:100F30008AE292E00E94920880919402882F90E0C9
:100F4000880F991FFC01E359FD4F80819181AC010D
:100F500080919402882F90E0880F991FFC01E95836
:100F6000FD4F20813181CA01B9010E94C00D32CFED
:100F70001F920F920FB60F9211242F933F935F93FE
:100F80006F937F938F939F93AF93BF93EF93FF9351
:100F9000CF93DF93CDB7DEB79091D5028091D60283
:100FA000981741F4A1ECB0E0E1ECF0E080818F7D96
:100FB0008C9317C08091D502882F90E0019620E491
:100FC00030E0B9010E94730F8093D502A6ECB0E027
:100FD0008091D502882F90E0FC01EB56FD4F808177
:100FE0008C93DF91CF91FF91EF91BF91AF919F9142
:100FF0008F917F916F915F913F912F910F900FBED5
:101000000F901F9018951F920F920FB60F921124F8
:101010002F933F935F936F937F938F939F93AF93A0
:10102000BF93EF93FF93CF93DF93CDB7DEB780915C
:101030001703E82FF0E080911803882F90E00196C5
:1010400020E430E0B9010E94730FE817F907B9F006
:1010500080911803882F90E0019620E430E0B901D8
:101060000E94730F8093180380911803882F90E0DB
:10107000E6ECF0E02081FC01E952FD4F2083DF9196
:10108000CF91FF91EF91BF91AF919F918F917F9100
:101090006F915F913F912F910F900FBE0F901F9016
:1010A0001895CF93DF93CDB7DEB721970FB6F8949D
:1010B000DEBF0FBECDBF89838091D502E82FF0E05F
:1010C0008091D602882F90E0019620E430E0B901AB
:1010D0000E94730FE817F90779F38091D602882FE1
:1010E00090E0019620E430E0B9010E94730F8093F4
:1010F000D6028091D602882F90E0FC01EB56FD4F7E
:1011000089818083A1ECB0E0E1ECF0E08081806235
:101110008C9321960FB6F894DEBF0FBECDBFDF9142
:10112000CF910895CF93DF93CDB7DEB722970FB657
:10113000F894DEBF0FBECDBF9A8389830BC0E981CF
:10114000FA81208189819A8101969A838983822FED
:101150000E945108E981FA818081882381F72296D3
:101160000FB6F894DEBF0FBECDBFDF91CF910895CB
:10117000CF93DF93CDB7DEB722970FB6F894DEBFDB
:101180000FBECDBF90911703809118031A82198268
:10119000981721F081E090E09A83898389819A8170
:1011A00022960FB6F894DEBF0FBECDBFDF91CF9170
:1011B0000895CF93DF93CDB7DEB70E94B808882398
:1011C000E1F380911703882F90E0019620E430E04E
:1011D000B9010E94730F8093170380911703882F22
:1011E00090E0FC01E952FD4F808180938202809162
:1011F00082020E94510880918202882F90E0DF9144
:10120000CF910895CF93DF93CDB7DEB725970FB673
:10121000F894DEBF0FBECDBF9D838C8384E18B83AA
:101220008C819D819A8389830E94D908809383024F
:1012300044C080918302883029F18B81882F90E00F
:101240009C0189819A81820F931F9C01215030401B
:101250008C819D818217930758F480918302EC81E1
:10126000FD8180838C819D8101969D838C8321C02B
:1012700088E00E94510880E20E94510888E00E94A4
:10128000510817C02C813D8189819A81281739071F
:1012900021F480E20E9451080CC080E20E945108B3
:1012A000809183020E9451088C819D8101979D83CA
:1012B0008C830E94D90880938302809183028D30B1
:1012C00009F0B7CF8AE00E945108EC81FD811082BD
:1012D00025960FB6F894DEBF0FBECDBFDF91CF913C
:1012E0000895CF93DF93CDB7DEB722970FB6F8946A
:1012F000DEBF0FBECDBF89836A838A819AE0692FE2
:101300000E94530F892F805D809334028A819AE076
:10131000692F0E94530F8A838A819AE0692F0E9465
:10132000530F892F805D8093330289819AE0692F62
:101330000E94530F892F805D8093370289819AE044
:10134000692F0E94530F898389819AE0692F0E9437
:10135000530F892F805D8093360281E392E00E94D3
:10136000920822960FB6F894DEBF0FBECDBFDF9174
:10137000CF910895CF93DF93CDB7DEB723970FB604
:10138000F894DEBF0FBECDBF89838981282F30E05E
:101390003B832A838A819B8181329105B1F12A8125
:1013A0003B812232310584F48A819B818F31910502
:1013B00021F12A813B81203231051CF58A819B81F4
:1013C0008E319105B1F034C02A813B812332310541
:1013D00021F18A819B8183329105DCF02A813B8156
:1013E00024323105F1F08A819B8185329105E9F043
:1013F0001FC080E380933D021BC081E380933D02C8
:1014000017C082E380933D0213C083E380933D02C3
:101410000FC084E380933D020BC085E380933D02BF
:1014200007C086E380933D0203C087E380933D02BB
:101430008AE392E00E94920823960FB6F894DEBFEA
:101440000FBECDBFDF91CF910895CF93DF93CDB77E
:10145000DEB780E492E00E94920885E492E00E9468
:101460009208DF91CF9108950F93CF93DF93CDB77B
:10147000DEB72C970FB6F894DEBF0FBECDBF8B83BF
:101480007D836C834E832F83088780EC90E09A8362
:1014900089838B81833051F480E391E09A8389833F
:1014A0000BC089819A8108969A8389838B818150A8
:1014B0008B838B818F3FA9F789819A81DC011196FB
:1014C00089819A81FC013196808188618C938C811D
:1014D0009D819C0140E050E080E492E4AFE0B0E008
:1014E000BC01CD010E94860FDA01C90101979D83DD
:1014F0008C8389819A81FC013596108289819A8139
:10150000FC013496108289819A81DC0111968981CF
:101510009A81FC01319680818B7F8C9389819A819D
:10152000DC01129689819A81FC0132968081897F43
:101530008C938E81282F30E03C872B878B859C8570
:1015400087309105B9F02B853C8528303105F1F0C5
:101550008B859C858630910509F023C089819A810D
:10156000DC01129689819A81FC0132968081826029
:101570008C9317C089819A81DC01129689819A81A6
:10158000FC013296808184608C930BC089819A81A2
:10159000DC01129689819A81FC01329680818660F5
:1015A0008C9389819A81DC01129689819A81FC0150
:1015B000329680818F7C8C938F81282F30E03A8700
:1015C000298789859A858130910531F029853A8569
:1015D0002230310569F017C089819A81DC011296A9
:1015E00089819A81FC013296808180638C930BC043
:1015F00089819A81DC01129689819A81FC01329657
:10160000808180628C938885823059F489819A81A7
:10161000DC01129689819A81FC0132968081886072
:101620008C9389819A81DC01119689819A81FC01D0
:1016300031968081806A8C93109217031092180360
:101640001092D5021092D60278942C960FB6F89488
:10165000DEBF0FBECDBFDF91CF910F910895CF9325
:10166000DF93CDB7DEB726970FB6F894DEBF0FBE77
:10167000CDBF9E838D831C821B821A82198236C045
:10168000ED81FE818081882F90E0C0979A838983C5
:1016900089819A8199237CF189819A818A30910587
:1016A00054F529813A818B819C81820F931F9C8301
:1016B0008B838D819E8101969E838D83ED81FE813A
:1016C0008081803398F0ED81FE8180818A3370F4CF
:1016D0008B819C819C01220F331FC901880F991FA8
:1016E000880F991F820F931F9C838B83ED81FE814E
:1016F0008081882329F68B819C8126960FB6F894E9
:10170000DEBF0FBECDBFDF91CF910895CF93DF93A2
:10171000CDB7DEB729970FB6F894DEBF0FBECDBFA9
:101720009D838C837F836E8348878C819D819B837F
:101730008A838885282F30E08E819F81B9010E949D
:101740005F0F805D898389818A3328F08981982F92
:10175000995F998702C089818987EC81FD8199858C
:1017600090838C819D8101969D838C838885282F11
:1017700030E08E819F81B9010E945F0FCB019F8372
:101780008E838E819F810097A1F6EC81FD8110826E
:101790008C819D8101979D838C8318C0EA81FB8198
:1017A00080818983EC81FD818081EA81FB81808356
:1017B000EC81FD81898180838A819B8101969B8355
:1017C0008A838C819D8101979D838C832A813B81B3
:1017D0008C819D812817390708F329960FB6F89454
:1017E000DEBF0FBECDBFDF91CF910895CF93DF93C2
:1017F000CDB7DEB7ADE2B0E0EDE2F0E080818E7F04
:101800008C93AEE2B0E0EEE2F0E0808181608C93F8
:10181000E6E4F0E01082E4E4F0E01082E5E4F0E0D9
:101820001082ECE2F0E08081882F90E0817090706F
:101830008823B9F7E5E4F0E082E08083ECE2F0E0B1
:101840008081882F90E0817090700097B9F3E5E473
:10185000F0E01082A4ECB0E0E6E4F0E08081869550
:10186000882F90E0019711969C938E93DF91CF91F2
:101870000895DF93CF93CDB7DEB7E6E4F0E01082B2
:10188000E7E4F0E089EF8083A4E4B0E0E4E4F0E092
:10189000808182608C93AEE6B0E0EEE6F0E080817D
:1018A00082608C93A5E4B0E0E5E4F0E080818360A1
:1018B0008C93CF91DF9108951F920F920FB60F92E4
:1018C00000905B000F9211242F933F934F935F93EF
:1018D0006F937F938F939F93AF93BF93EF93FF93F8
:1018E000DF93CF93CDB7DEB72897DEBFCDBF809112
:1018F000840290918502A0918602B09187020196A0
:10190000A11DB11D8093840290938502A09386024D
:10191000B093870280919002882309F4F7C08091E8
:101920008B028823A9F010928B02809185039091FD
:1019300086039C0140E050E089E09DE3A0E0B0E038
:10194000BC01CD010E94860FDA01C9010E949F0DE2
:1019500080919102882309F095C0209184023091F2
:101960008502409186025091870280918103909177
:101970008203A0918303B0918403281B390B4A0B87
:101980005B0B8091870390918803CC01A0E0B0E0CD
:10199000281739074A075B0708F4B8C081E080932D
:1019A00091028091840290918502A0918602B0916B
:1019B000870280938C0290938D02A0938E02B09345
:1019C0008F0280E00E949F0D20917D0330917E0365
:1019D0008091880290918902880F991F880F991F22
:1019E000820F931F98878F838F819885FC01859143
:1019F00094919E838D83F887EF838D819E81909350
:101A000086038093850320917D0330917E0380912E
:101A1000880290918902880F991F0196880F991F5B
:101A2000820F931F9C838B838B819C81FC0185910A
:101A300094919A838983FC83EB8389819A81909323
:101A40008803809387038091880290918902019690
:101A500090938902809388028091880290918902F4
:101A60009C012150304080917F0390918003281782
:101A7000390709F04BC0109290021092890210921F
:101A8000880244C08091840290918502A0918602D0
:101A9000B091870220918C0230918D0240918E028C
:101AA00050918F02821B930BA40BB50B8A309105CA
:101AB000A105B10558F11092910280918503909192
:101AC0008603009719F180918503909186039C010C
:101AD00040E050E089E09DE3A0E0B0E0BC01CD0132
:101AE0000E94860FDA01C9010E949F0D8091840235
:101AF00090918502A0918602B09187028093810324
:101B000090938203A0938303B09384032896DEBF4F
:101B1000CDBFCF91DF91FF91EF91BF91AF919F9199
:101B20008F917F916F915F914F913F912F910F9086
:101B300000925B000F900FBE0F901F901895DF93DF
:101B4000CF930F92CDB7DEB789838981882321F4A3
:101B5000E1EBF0E0108210C0E0EBF0E083E2808384
:101B6000E1EBF0E08FE08083E3EBF0E089818150EE
:101B7000808380E00E94140E0F90CF91DF91089532
:101B8000DF93CF93CDB7DEB72C970FB6F894DEBFB7
:101B90000FBECDBF9A8789877C876B8789859A8599
:101BA00090937E0380937D038B859C859093800327
:101BB00080937F0389859A8598878F838F81988505
:101BC000FC01859194919E838D83F887EF838D81AD
:101BD0009E81909386038093850389859A850896D4
:101BE0009C838B838B819C81FC01859194919A834A
:101BF0008983FC83EB8389819A8190938803809306
:101C0000870381E080938B0281E0809390021092A1
:101C10008902109288022C960FB6F894DEBF0FBE90
:101C2000CDBFCF91DF9108950F931F93DF93CF9393
:101C30000F92CDB7DEB789838981823071F48091AC
:101C40008A02882F90E001968630910534F48091C5
:101C50008A028F5F80938A020FC08981813061F48C
:101C600080918A02882F90E0019799232CF080912F
:101C70008A02815080938A0280918A02882F90E0A4
:101C8000FC01E75BFD4F8081882321F4E1EBF0E06C
:101C9000108229C080919002882329F1E1EBF0E0C5
:101CA0008FE0808304EB10E0E3EBF0E08081282FED
:101CB00030E080918A02882F90E0FC01E75BFD4FC5
:101CC0008081882F90E0AC01249FC001259F900D5A
:101CD000349F900D112424E630E0B9010E94730F67
:101CE000CB01F80180830F90CF91DF911F910F916D
:101CF0000895DF93CF93CDB7DEB7E0E3F0E080EE59
:101D00008083A1E3B0E0E0E3F0E0808180958C93F4
:101D1000CF91DF9108950F931F93DF93CF93CDB7AA
:101D2000DEB710929202EFE2F0E08081282F30E0DF
:101D300080919302882F90E0890102C01595079544
:101D40008A95E2F7C801817090700097E9F580915B
:101D50009302282F30E0C901880F991F820F931F2B
:101D6000880F991FFC01E05BFD4F8081882309F4F7
:101D700085C080919302282F30E0C901880F991FF8
:101D8000820F931F880F991FFC01E05BFD4F1082AB
:101D900080919302282F30E0409184025091850277
:101DA0006091860270918702C901880F991F820F86
:101DB000931F0196880F991FFC01E15BFD4F408343
:101DC0005183628373835AC040918402509185028B
:101DD000609186027091870280919302282F30E0F3
:101DE000C901880F991F820F931F0196880F991FB1
:101DF000FC01E15BFD4F80819181A281B3818A0169
:101E00009B01081B190B2A0B3B0BD901C801853616
:101E10009105A105B10590F180919302282F30E042
:101E2000C901880F991F820F931F880F991FFC010A
:101E3000E05BFD4F8081882309F580919302282F74
:101E400030E0C901880F991F820F931F880F991FD7
:101E5000FC01E05BFD4F81E0808380919302282F9D
:101E600030E0C901880F991F820F931F880F991FB7
:101E7000FC01E15BFD4F808180939202809193028F
:101E80008F5F809393028091930295E0692F0E9467
:101E9000530F892F8093930280919202CF91DF910B
:101EA0001F910F910895991B79E004C0991F96170F
:101EB00008F0961B881F7A95C9F780950895AA1B8C
:101EC000BB1B51E107C0AA1FBB1FA617B70710F025
:101ED000A61BB70B881F991F5A95A9F78095909557
:101EE000BC01CD01089597FB092E07260AD077FD86
:101EF00004D0E5DF06D000201AF4709561957F4F7D
:101F00000895F6F7909581959F4F089597FB092EB8
:101F100005260ED057FD04D014D00AD0001C38F48A
:101F200050954095309521953F4F4F4F5F4F089505
:101F3000F6F790958095709561957F4F8F4F9F4FE5
:101F40000895A1E21A2EAA1BBB1BFD010DC0AA1FFA
:101F5000BB1FEE1FFF1FA217B307E407F50720F012
:101F6000A21BB30BE40BF50B661F771F881F991F8D
:101F70001A9469F760957095809590959B01AC01D6
:0A1F8000BD01CF010895F894FFCFD2
:101F8A004175746F6261756420646F6E650A0D0035
:101F9A0055500A0D00646F776E0A0D006E657874ED
:101FAA000A0D00707265760A0D00706C61790A0D6F
:101FBA00001B5B30303B303048001B5B33306D0018
:101FCA001B5B324A001B5B48000001020814320105
:101FDA0001000000000301000000000501000000EC
:101FEA0000040100000000020100000000E400FCFF
:101FFA000164036005C40846005A007F00D9002026
:02200A000105CE
:00000001FF
