:100000000C9472000C9491000C9491000C9491004B
:100010000C9491000C9491000C9491000C9491001C
:100020000C9491000C9491000C9491000C9491000C
:100030000C9491000C948F020C9491000C949100FC
:100040000C9491000C9491000C9491000C949100EC
:100050000C9491000C94AF010C9491000C949100BD
:100060000C9491000C94EF020C94A4020C94910057
:100070000C9491000C9491000C9491000C949100BC
:100080000C9491000C9491000C9491000C949100AC
:100090000C9491000C9491000C9491000C9491009C
:1000A0000C9491000C9491000C9491000C9491008C
:1000B0000C9491000C9491000C9491000C9491007C
:1000C0000C9491000C9491000C9491000C9491006C
:1000D0000C9491000C9491000C9491000C9491005C
:1000E0000C94910011241FBECFEFD1E2DEBFCDBF33
:1000F00012E0A0E0B2E0E4EAFEE000E00BBF02C0E4
:1001000007900D92AC33B107D9F712E0ACE3B2E03F
:1001100001C01D92AA3CB107E1F70E9493000C9424
:1001200051070C9400000F93CF93DF93CDB7DEB748
:10013000C857D0400FB6F894DEBF0FBECDBF78943D
:1001400002E021E048E060E070E080E00E942005ED
:100150000E94DA010E94110561E085E00E945D04C1
:1001600080E092E00E947E03E4ECF0E080819181E7
:100170004AE0BC01CE0101960E947106CE010196B3
:100180000E947E0389E192E00E947E030E947B012F
:1001900087E00E941D0242E36AE387E10E945C015E
:1001A0000E946D028823E1F30E94F30062E085E083
:1001B0000E945D040E941E0163E085E00E945D04D0
:1001C0008CE192E00E947E030E949E01DC01CB0143
:1001D0004AE0BC01CE0101960E947106CE01019653
:1001E0000E947E03DDCFCF93DF93CDB7DEB7809142
:1001F0003F028F5F80933F0280913F028C33D9F49E
:1002000010923F02809141028F5F80934102809162
:1002100041028C3381F410924102809140028F5F41
:10022000809340028091400298E1692F0E94E1068C
:10023000892F80934002DF91CF910895CF93DF9370
:10024000CDB7DEB7809140020E9437018AE30E9459
:100250003D03809141020E9437018AE30E943D03E1
:1002600080913F020E943701DF91CF910895CF9393
:10027000DF93CDB7DEB721970FB6F894DEBF0FBE80
:10028000CDBF898389819AE0692F0E94E106805D54
:100290000E943D0389819AE0692F0E94E106892F1F
:1002A000805D0E943D0321960FB6F894DEBF0FBE1D
:1002B000CDBFDF91CF910895CF93DF93CDB7DEB758
:1002C00023970FB6F894DEBF0FBECDBF89836A8334
:1002D0004B838981809340028A81809341028B8184
:1002E00080933F0223960FB6F894DEBF0FBECDBFBA
:1002F000DF91CF910895CF93DF93CDB7DEB7E6E4DA
:10030000F0E01082E7E4F0E089EF8083A4E4B0E05D
:10031000E4E4F0E0808182608C93AEE6B0E0EEE64B
:10032000F0E0808182608C93A5E4B0E0E5E4F0E049
:10033000808183608C93DF91CF910895CF93DF9379
:10034000CDB7DEB78091420290914302A091440262
:10035000B0914502BC01CD01DF91CF9108951F926C
:100360000F920FB60F9211248F939F93AF93BF9369
:10037000CF93DF93CDB7DEB78091420290914302D5
:10038000A0914402B09145020196A11DB11D809338
:10039000420290934302A0934402B0934502DF913E
:1003A000CF91BF91AF919F918F910F900FBE0F9002
:1003B0001F901895CF93DF93CDB7DEB7ADE2B0E0D5
:1003C000EDE2F0E080818E7F8C93AEE2B0E0EEE271
:1003D000F0E0808181608C93E6E4F0E01082E4E458
:1003E000F0E01082E5E4F0E01082ECE2F0E08081E1
:1003F000882F90E0817090708823B9F7E5E4F0E0F1
:1004000082E08083ECE2F0E08081882F90E08170D0
:1004100090700097B9F3E5E4F0E01082A4ECB0E04E
:10042000E6E4F0E080818695882F90E001971196B0
:100430009C938E93DF91CF910895CF93DF93CDB7A7
:10044000DEB721970FB6F894DEBF0FBECDBF89830C
:10045000E0E7F0E01082E6EBF0E080E28083E0EBA2
:10046000F0E082E08083E1EBF0E087E08083E2EB84
:10047000F0E01082E3EBF0E089818295880F807EC6
:100480008083E6EBF0E08081882F90E080719070AF
:100490000097B9F7E6EBF0E08081882F90E0887054
:1004A0009070009771F7E6EBF0E08081882F90E084
:1004B00082709070009729F7E7E3F0E01082E0E7A0
:1004C000F0E082E08083789421960FB6F894DEBF46
:1004D0000FBECDBFDF91CF910895CF93DF93CDB7FE
:1004E000DEB722970FB6F894DEBF0FBECDBF809166
:1004F0003C02882339F010923C0281E090E09A831C
:10050000898302C01A82198289819A8122960FB644
:10051000F894DEBF0FBECDBFDF91CF9108951F923B
:100520000F920FB60F9211248F93CF93DF93CDB715
:10053000DEB781E080933C02DF91CF918F910F90E5
:100540000FBE0F901F9018951F920F920FB60F922B
:1005500011242F933F935F936F937F938F939F9378
:10056000AF93BF93EF93FF93CF93DF93CDB7DEB7F6
:100570009091860280918702981741F4A1ECB0E037
:10058000E1ECF0E080818F7D8C9317C08091860232
:10059000882F90E0019620E430E0B9010E94010725
:1005A00080938602A6ECB0E080918602882F90E0CE
:1005B000FC01EA5BFD4F80818C93DF91CF91FF912D
:1005C000EF91BF91AF919F918F917F916F915F91CB
:1005D0003F912F910F900FBE0F901F9018951F9273
:1005E0000F920FB60F9211242F933F935F936F9347
:1005F0007F938F939F93AF93BF93EF93FF93CF938B
:10060000DF93CDB7DEB78091C802E82FF0E080918C
:10061000C902882F90E0019620E430E0B9010E94E1
:100620000107E817F907B9F08091C902882F90E017
:10063000019620E430E0B9010E9401078093C902CD
:100640008091C902882F90E0E6ECF0E02081FC0167
:10065000E857FD4F2083DF91CF91FF91EF91BF913C
:10066000AF919F918F917F916F915F913F912F916A
:100670000F900FBE0F901F901895CF93DF93CDB7BB
:10068000DEB721970FB6F894DEBF0FBECDBF8983CA
:1006900080918602E82FF0E080918702882F90E019
:1006A000019620E430E0B9010E940107E817F9073C
:1006B00079F380918702882F90E0019620E430E062
:1006C000B9010E9401078093870280918702882FD9
:1006D00090E0FC01EA5BFD4F89818083A1ECB0E0F2
:1006E000E1ECF0E0808180628C9321960FB6F89463
:1006F000DEBF0FBECDBFDF91CF910895CF93DF93C3
:10070000CDB7DEB722970FB6F894DEBF0FBECDBFD0
:100710009A8389830BC0E981FA81208189819A813A
:1007200001969A838983822F0E943D03E981FA8191
:100730008081882381F722960FB6F894DEBF0FBE22
:10074000CDBFDF91CF910895CF93DF93CDB7DEB7C3
:1007500022970FB6F894DEBF0FBECDBF9091C802AE
:100760008091C9021A821982981721F081E090E0E5
:100770009A83898389819A8122960FB6F894DEBF85
:100780000FBECDBFDF91CF910895CF93DF93CDB74B
:10079000DEB70E94A4038823E1F38091C802882F6A
:1007A00090E0019620E430E0B9010E9401078093B7
:1007B000C8028091C802882F90E0FC01E857FD4FE5
:1007C000808180933D0280913D020E943D03809193
:1007D0003D02882F90E0DF91CF910895CF93DF9372
:1007E000CDB7DEB725970FB6F894DEBF0FBECDBFED
:1007F0009D838C8384E18B838C819D819A83898303
:100800000E94C50380933E0244C080913E0288301E
:1008100029F18B81882F90E09C0189819A81820F38
:10082000931F9C01215030408C819D81821793073A
:1008300058F480913E02EC81FD8180838C819D8102
:1008400001969D838C8321C088E00E943D0380E255
:100850000E943D0388E00E943D0317C02C813D812A
:1008600089819A812817390721F480E20E943D038B
:100870000CC080E20E943D0380913E020E943D0335
:100880008C819D8101979D838C830E94C5038093F9
:100890003E0280913E028D3009F0B7CF8AE00E947F
:1008A0003D03EC81FD81108225960FB6F894DEBFE2
:1008B0000FBECDBFDF91CF910895CF93DF93CDB71A
:1008C000DEB722970FB6F894DEBF0FBECDBF898387
:1008D0006A838A819AE0692F0E94E106892F805DF0
:1008E000809327028A819AE0692F0E94E1068A8319
:1008F0008A819AE0692F0E94E106892F805D8093AA
:10090000260289819AE0692F0E94E106892F805D85
:1009100080932A0289819AE0692F0E94E1068983E7
:1009200089819AE0692F0E94E106892F805D80937A
:10093000290284E292E00E947E0322960FB6F89488
:10094000DEBF0FBECDBFDF91CF910895CF93DF9370
:10095000CDB7DEB723970FB6F894DEBF0FBECDBF7D
:1009600089838981282F30E03B832A838A819B8178
:1009700081329105B1F12A813B812232310584F423
:100980008A819B818F31910521F12A813B8120321F
:1009900031051CF58A819B818E319105B1F034C0FF
:1009A0002A813B812332310521F18A819B81833267
:1009B0009105DCF02A813B8124323105F1F08A81F6
:1009C0009B8185329105E9F01FC080E3809330025E
:1009D0001BC081E38093300217C082E38093300212
:1009E00013C083E3809330020FC084E3809330020E
:1009F0000BC085E38093300207C086E3809330020A
:100A000003C087E3809330028DE292E00E947E0370
:100A100023960FB6F894DEBF0FBECDBFDF91CF9106
:100A20000895CF93DF93CDB7DEB783E392E00E94C2
:100A30007E0388E392E00E947E03DF91CF910895C8
:100A40000F93CF93DF93CDB7DEB72C970FB6F89403
:100A5000DEBF0FBECDBF8B837D836C834E832F8320
:100A6000088780EC90E09A8389838B81833051F4EE
:100A700080E391E09A8389830BC089819A810896EB
:100A80009A8389838B8181508B838B818F3FA9F7D8
:100A900089819A81DC01119689819A81FC013196C4
:100AA000808188618C938C819D819C0140E050E025
:100AB00080E492E4AFE0B0E0BC01CD010E941407F5
:100AC000DA01C90101979D838C8389819A81FC0198
:100AD0003596108289819A81FC0134961082898131
:100AE0009A81DC01119689819A81FC01319680817D
:100AF0008B7F8C9389819A81DC01129689819A81FE
:100B0000FC0132968081897F8C938E81282F30E082
:100B10003C872B878B859C8587309105B9F02B8589
:100B20003C8528303105F1F08B859C858630910518
:100B300009F023C089819A81DC01129689819A810A
:100B4000FC013296808182608C9317C089819A81E2
:100B5000DC01129689819A81FC0132968081846041
:100B60008C930BC089819A81DC01129689819A81CC
:100B7000FC013296808186608C9389819A81DC01A8
:100B8000129689819A81FC01329680818F7C8C93A8
:100B90008F81282F30E03A87298789859A8581308F
:100BA000910531F029853A852230310569F017C069
:100BB00089819A81DC01129689819A81FC013296A1
:100BC000808180638C930BC089819A81DC011296AD
:100BD00089819A81FC013296808180628C9388851C
:100BE000823059F489819A81DC01129689819A8137
:100BF000FC013296808188608C9389819A81DC0126
:100C0000119689819A81FC0131968081806A8C934A
:100C10001092C8021092C9021092860210928702A6
:100C20002C960FB6F894DEBF0FBECDBFDF91CF91EB
:100C30000F910895CF93DF93CDB7DEB726970FB608
:100C4000F894DEBF0FBECDBF9E838D831C821B82B6
:100C50001A82198236C0ED81FE818081882F90E052
:100C6000C0979A83898389819A8199237CF18981AC
:100C70009A818A30910554F529813A818B819C8132
:100C8000820F931F9C838B838D819E8101969E830F
:100C90008D83ED81FE818081803398F0ED81FE812E
:100CA00080818A3370F48B819C819C01220F331FD9
:100CB000C901880F991F880F991F820F931F9C836A
:100CC0008B83ED81FE818081882329F68B819C8135
:100CD00026960FB6F894DEBF0FBECDBFDF91CF9141
:100CE0000895CF93DF93CDB7DEB729970FB6F89469
:100CF000DEBF0FBECDBF9D838C837F836E8348870D
:100D00008C819D819B838A838885282F30E08E810A
:100D10009F81B9010E94ED06805D898389818A33B4
:100D200028F08981982F995F998702C089818987E6
:100D3000EC81FD81998590838C819D8101969D83B5
:100D40008C838885282F30E08E819F81B9010E9495
:100D5000ED06CB019F838E838E819F810097A1F644
:100D6000EC81FD8110828C819D8101979D838C8314
:100D700018C0EA81FB8180818983EC81FD818081BB
:100D8000EA81FB818083EC81FD81898180838A8176
:100D90009B8101969B838A838C819D8101979D8392
:100DA0008C832A813B818C819D812817390708F328
:100DB00029960FB6F894DEBF0FBECDBFDF91CF915D
:100DC0000895991B79E004C0991F961708F0961BA7
:100DD000881F7A95C9F780950895AA1BBB1B51E11E
:100DE00007C0AA1FBB1FA617B70710F0A61BB70B9B
:100DF000881F991F5A95A9F780959095BC01CD0140
:100E0000089597FB092E07260AD077FD04D0E5DF69
:100E100006D000201AF4709561957F4F0895F6F77B
:100E2000909581959F4F089597FB092E05260ED02A
:100E300057FD04D014D00AD0001C38F450954095CA
:100E4000309521953F4F4F4F5F4F0895F6F790959E
:100E50008095709561957F4F8F4F9F4F0895A1E2C8
:100E60001A2EAA1BBB1BFD010DC0AA1FBB1FEE1F24
:100E7000FF1FA217B307E407F50720F0A21BB30B6F
:100E8000E40BF50B661F771F881F991F1A9469F7EB
:100E900060957095809590959B01AC01BD01CF0147
:040EA0000895FFCFE3
:100EA4004175746F62617564696E6720646F6E6505
:100EB4002E2055425252303D000A0D006D696C6C73
:100EC40069733D001B5B30303B303048001B5B33A3
:0C0ED400306D001B5B324A001B5B4800C5
:00000001FF
